ACMARK 2454612   0902190000814154
B72849800045B BAKER MUFFIN DBL CHOC  451721000759BX0000060000100239001
B05450031805BALL PARK ANGUS BF FRNK 6900480003686CS0000500000100139001
B63958003018EMERALD JR STRAW JMBO WRP683011000702BX0000010000100000001
B03097332001FRAZIL BLUE RAZMATAZZ    570507009447CS0000100000100000000
B03097332023FRAZIL SMASHBERRY        468809009447CS0000100000100000000
B07790051374J DEAN BRKFST BSCT SAUS/E634634002089CS0000120000100319001
B72735102481P/S KNIFE P/P MED WRP WHI916163002174CS0010000000000000000
B07049617180D MIG BUR BOMB SPICY RED 138552000224EA0000010001200359001
B02708618432D MIG BUR SAUS/EGG/CHEESE733246000162EA0000010001200329001
B07100703376EL MONT BUR BF/BN SPICY  891911000068EA0000010000300129001
B07100701582EL MONT BUR BF/BN XXL    459582000121EA0000010000300209001
B04369509702HOT PCKT HAM/CHEESE SUPER360040000180EA0000010000300199001
B04369509734HOT PCKT PHILLY STEAK/CHS949271000180EA0000010000300309001
B07142159864PIERRE BIG AZ CHSBRGR CW 418859000302EA0000010000300519001
B04498400242ALMARK EGG PLAIN HARD BOI429635000732BX0000100000100099001
B68290689289CA D/D SNDW SLB TRI RST B327486000193EA0000010000200319001
B68290689297CA SLB PRTZL BUN TURKEY  238600000259EA0000010000100499001
B68290689077CA SLB SNDW TRI EGG SALAD370882000193EA0000010000100379001
B71752430995DEL MONTE YELLOW ONIONS D707596000189BG0000010000000000000
B72243011016GTS SYNERGY ENLIGHTEN TRI452086001417CS0000060000100399001
B01708288549LINK BF STK BF & PPR JCK 454806001806BX0000080000100000000
B01708288547LINK BITE BF/CHSE        454804001337BX0000050000100000000
B04850001775TROP PURE PREM ORIG ORANG394247001637CS0000120000100239001
B04850001777TROP PURE PREM W/PULP ORA394262001637CS0000120000100239001
B04370101239TUSCAN SNDW SUB HAM & CHE191965000224EA0000010000200349001
B02620047159ANDY CAPP FRIES HOT      433223000600CS0000070000100169001
B02620023187ANDY CAPP FRIES RANCH    467481000878CS0000120000100149001
B81601201273BIGS SNFLWR SEEDS TACO SU453942001614CS0000120000100269001
B04157013034BLUE D ALMONDS SWEET THAI439531000981BX0000120000100169001
B04157009496BLUE D ALMONDS TOASTED CO357442000981BX0000120000100169001
B01600051379BUGLES NACHO             469864000710CS0000060000100229001
B02410057382CHEEZ-IT PEPP JK         796755000595BX0000060000100189001
B72225234233CLIF BAR MOJO CRNCH ALMD 467354000678BX0000060000100229001
B03010012515KEEBLER CRCKR CHSE & PB  814822000527BX0000120000100089001
B08411422198KETTLE CHIPS PEPPERONCINI422453000549CS0000060000100159001
B01708288514LINK BF STEAK LAYDOWN CDY454396001555BX0000120000100259001
B01708288063LINK BF STK HOT & SPICY C815266003003BX0000240000000219001
B04400004700NAB OREO CKIE SS         431071000644BX0000120000100099001
B04400003283NAB OREO DBL STUFF GLDN K442827001097BX0000100000100189001
B01600043989NAT VALLEY CHWY TRAIL MIX283036000763BX0000160000100069001
B01600044282NAT VALLEY SWT&SLTY PNUT 846535000763BX0000160000100099001
B89176000256PAQUI CHIPS HAUNTED GHOST433467000673CS0000060000100199001
B03800031031POP TARTS FROST BLUEBERRY893263000394BX0000060000100079001
B03800019260POP TARTS SPLTZ FRST STRW461435000394BX0000060000100119001
B87218100160PRTZL FLIPZ CHOC MINT    258632001194CS0000060000000399001
B87218100054PRTZL FLIPZ WHT FDG      454652001216CS0000060000100399001
B88884900021QUEST BAR WHT CHOC RASP  641449002329BX0000120000100329001
B02620014050SLIM JIM MONSTER STCK TAB276659002831BX0000180000100319001
B02840033272SPITZ SUNFLOWER SDS SWT C454978000928CS0000090000100209001
B72049590065TGIF POT SKINS CHED/SR CR000844000811CS0000060000100269001
B02052557219TIGERS MILK PB CRUNCH KS 582585000892BX0000120000100149001
B08379112605ZAPPS CHIPS KETTLE VOODOO432783001044CS0000100000100209001
B02620046472D+S SNFLWR SDS JALA HOT S210559000123EA0000010000500229001
B02620023893D+S SNFLWR SDS JUMBO BUFF750992000123EA0000010000300229001
B79042923167I F CRANBERRY HEALTH     771188000200EA0000010000300299001
B79042923286I F SESAME STIK SLTD    @496430000133EA0000010000300199001
B01708288586LINK JRKY TURKEY         458616000514EA0000010000300819001
B04400003403NAB OREO DBL STUFF CONV P619429000174EA0000010000300299001
B02900001257PLT B/B H R PNUTS        513309000137EA0000010000300159001
B03800013863PRINGLES PIZZA           443356000171EA0000010000300319001
B01411373406WONDERFUL PISTACHIOS RST/426582000654EA0000010000301219001
B02200000974ALTOIDS SMALLS WINTERGREE628057000772BX0000090000100055001
B85947000628CHAVITO CUCHARA          448501001580BX0000120000100259001
B04000045985DOVE DARK CHOC SLKY/SMTH 738831001386BX0000180000100069001
B03400000843ICE BREAKER I-CUBE PEPPER417692001679BX0000060000100055001
B03400000668ICE BREAKER MINTS FROST P656173000944BX0000060000100055001
B07920014336LAFFY TAFFY CHERRY       422170001758BX0000240000100069001
B02800065226LAFFY TAFFY ROPE BANANA  627307000597BX0000240000100099001
B04000000432M&M PEANUT KING SZ       012674003304BX0000240000100099001
B07339001405MENTOS GUM PURE FRSH SPEA422591001067BX0000040000100055001
B07339000922MENTOS NOW MINTS SPEARMIN419904001876BX0000120000100055001
B07097047127MIKE & IKE BERRY BLAST   498618001067CS0000120000100169001
B07097047100MIKE & IKE ZOURS ORIG    038083001067CS0000120000100169001
B02200000089ORBIT WHT SOFT CHEW PEPPE439597000933BX0000090000000055001
B03400000052REESES FAST BREAK        064725001362BX0000180000100069001
B03400000035REESES FAST BREAK KING SZ330944002436BX0000180000100099001
B04142001306SATHERS 2/$2.00 ORANGE SL469086000731CS0000120000100119001
B04142001302SATHERS 2/$2.00 SR NEON N469071000731CS0000120000100119001
B04000000460SKITTLES BITE SIZE KS    131987003247BX0000240000100099001
B00980000767TIC TAC BIG PK SNGLS WINT460915001131BX0000120000100129001
B01254601113TRIDENT VALU PAK WTRMLN T444920001040BX0000120000100055001
B02222420086W WALLABY LICORICE GRN AP015230001408CS0000160000100159001
B02200000171WRIGLEY SPEARMINT TWIN BX443721000778BX0000400000100030001
B04223830221HARIBO GOLDBEARS         083899000105EA0000010000300189001
B07046209863SOUR PATCH KD WTRMLN     477174000110EA0000010000500199001
B04142011587TROLLI GUMMI SR BR CRWLR 419923000125EA0000010000500229001
B03400054413TWIZZLERS LICORICE NIBS C155283000129EA0000010000500189001
B03800063530KELLOGG CRL IN A CUP FROO335562000669SL0000060000100189001
B71591000008SONOCO BAG LG NEIGHBORHD 344069008124CS0016000000100009001
B03700099015CHARMIN ULTRA STRONG     447744000193EA0000010000300329001
B81000344024COMET CLEANSER PWDR PINE 476621000082EA0000010000300139001
B01258755050GLAD LOCK STORAGE GL     123604000249EA0000010000300419001
B01300000124HEINZ KETCHUP            873349000205EA0000010000300209001
B03700000614JOY LIQUID LEMON         333906000139EA0000010000300199001
B02100001088KRAFT EASY MAC CUP TRPL C357947000120EA0000010000300229001
B02100065893KRAFT VELVEETA + SHELLS  278390000424EA0000010000300389001
B01920074185LYSOL DISF SPRAY CRISP LI467092000339EA0000010000300469001
B07066201003TOP RAMEN CHICKEN        633891000026EA0000010000000049001
B07911704242AND CHOC 2% MILK         462409000098EA0000010000400000000
B07911712121AND CHOC 2% MILK 32Z     166751000151EA0000010000300000000
B07911701316AND I/C CHOC CHIP        299719000150EA0000010000100199001
B07911701321AND I/C COOKIES N CREAM  299800000150EA0000010000100199001
B07911701314AND I/C STRAWBERRY       299685000150EA0000010000100199001
B07911701312AND I/C VANILLA          299438000150EA0000010000100199001
B07911704040AND WHOLE MLK 12Z        462411000097EA0000010000200000000
B07911712525AND 1% MILK 128Z         166835000368EA0000010000100000000
B07911704141AND 2% MILK              462410000097EA0000010000100000000
B07911711120AND 2% MILK 128Z         166546000368EA0000010000500000000
B02100000022KRAFT NAT STRING CHEESE  735936001233BX0000240000100089001
B01708288703LINK CC LINKWICH GENOA/PE468971000970BX0000060000100000000
B01708288713LINK CC LINKWICH SALAMI/C468980000970BX0000060000000000000
B04470002454OM LNCHBL HAM/SWISS W/CRA735316000226EA0000010000100359001
B89470001033CHOBANI GRK YOGURT MANGO 072678000147EA0000010000300170001
B04470009444OM NAT PLATE TURK/ASIAGO/444388000289EA0000010000300379001
B88810901220HOST DANISH CREAM CHEESE 466634000817BX0000060000100000000
B88810901002HOST DING DONGS          454621000817BX0000060000000229001
B88810911064HOST DONETTES CRUNCH     446208000265BG0000010000000399001
B88810911065HOST DONETTES GLAZED     446209000265BG0000010000000399001
B88810901067HOST ICED HONEY BUN      419937000817BX0000060000100229001
B88810901010HOST TWINKIES            454620000817BX0000060000100229001
B88810901005HOST ZINGERS DEVILS FOOD 619940000817BX0000060000000229001
B88810901011HOST ZINGERS VANILLA     620211000817BX0000060000100229001
B03200000046SPARKLETTS DRINKING WATER589879000337CS0000240001400039001
B88796901034BLU MY E-CIG LIQPOD GOLD 473031003857BX0000050000101289001
B09418703029C/VALET HOSE BANDAGE 2X12627257000267BX0000020000200229001
B85446400601CHARGE MAXX CAR CRG B/W D439495002160DL0000080000100459001
B85446400604CHARGE MAXX CAR CRGR MUL 439496002160DL0000080000100459001
B85446400625CHARGE MAXX EARBUDS MULTI439507002449DL0000080000100519001
B85446400675CHARGE MAXX EMOBII TYPE-C454004003240DL0000120000000459001
B85446400616CHARGE MAXX IPHONE 8PN B/439503003240DL0000120000100459001
B85446400617CHARGE MAXX IPHONE 8PN MU439504003240DL0000120000100459001
B07194800010GUMOUT OCTANE BOOSTER    450530000174EA0000010000100299001
B07194890072GUMOUT POWER STEERING FLU301812000148EA0000010000100249001
B81991301177JUUL E-LIQ POD MINT 4PK  464548009227BX0000080000101929001
B81991301140JUUL E-LIQ POD MINT 4PK  219071009227BX0000080000201929001
B07015800005KRAZY GLUE ALL PURPOSE   670158000165EA0000010000100219001
B08089301050LIL A DUCT TAPE          042994000201EA0000010000100339001
B08089301038LIL A TAPE ELECTRICAL VIN599480000128EA0000010000300219001
B89433700705LOWRIDER S/GLASS       #1426251001091EA0000010000101819001
B04310005510MEAD NTBK SPIRAL W/R     702597000173EA0000010000300289001
B07115300203STP HD BRAKE FLUID DOT 3 452070000193EA0000010000100129001
B07115366046STP POWER STEER & STOP LE452068000192EA0000010000100139001
B84920501512VUSE CIRO E-CIG CART ORIG449538004960BX0000050000201659001
B84920501529VUSE VIBE E-CIG TANK ORIG453161003673BX0000050000201229001
B79255462001CARMEX TUBE CARDED       492678000903DL0000060000200259001
B04145727256GOODY ELASTIC BLACK 29CT 438446000198EA0000010000100339001
B36671597102LIL D EXCEDRIN 4CT TRIAL 431945000765BX0000060000100219001
B36671597472LIL D TAKE 2 TYLENOL ES C734293000795DL0000060000100229001
B85186200205RESTORZ GUMMY MELATONIN  448112000104EA0000010000400179001
B85186200201RESTORZ GUMMY VITAMIN    448111000104EA0000010000400179001
B07161030198BACKWOODS SWEET AROMATIC 099770002847BX0000240000100220001
B07161030192BACKWOODS SWEET AROMATIC 698852004301BX0000080000100935001
B07013700018BLK+MLD                  530998005010BX0000100000100870001
B02590022726SWISHER SWT CIGRLO       397422002603BX0000300000100168001
B01230000040CAMEL SNUS FROST      LRG696823002278RL0000050000100844001
B01230000023CAMEL SNUS MELLOW     FRE438937002278RL0000050000100313001
B01230000068CAMEL SNUS WNTRCHILL  LRG438994002278RL0000050000100313001
B07310000107COPENHAGEN FC NATURAL    074096002626RL0000050000100489001
B07310000036COPENHAGEN LC MINT       139675002065RL0000050000100779001
B07310000121COPENHAGEN LC NATURAL    127654002626RL0000050000100489001
B07310000882COPENHAGEN LC STRAIGHT   307553002243RL0000050000100831001
B07310000876COPENHAGEN LC WINTERGREEN132084002097RL0000050000200779001
B07310000314COPENHAGEN POUCH         371575002626RL0000050000300489001
B07310000055COPENHAGEN POUCH WINTERGR252734002097RL0000050000200779001
B04210000886GRIZZLY LC STRAIGHT      677112002194RL0000050000100779001
B04210000871GRIZZLY LC WNTRGRN       316604002194RL0000050000500779001
B04210000543GRIZZLY POUCH WINTERGREEN430157002194RL0000050000200779001
B04210000294KODIAK WINTERGREEN       184267002706RL0000050000100489001
B07310000090SKOAL BANDIT MINT        465047002626RL0000050000400489001
B07310000137SKOAL FC WINTERGREEN     074104002626RL0000050000100489001
B07310000313SKOAL LC BERRY           320903002097RL0000050000100779001
B07310000589SKOAL LC PEACH           909598002097RL0000050000200779001
B07310000344SKOAL PCH BERRY          472150002097RL0000050000200779001
B07310000491SKOAL PCH CITRUS BLEND   472154002006RL0000050000200779001
B07310000457SKOAL PCH MINT           816272002626RL0000050000300489001
B07310000890SKOAL SNUS MINT          818583002053RL0000050000100779001
B07310000272SKOAL X-TRA LC MINT      051193002209RL0000050000100831001
B07310000168SKOAL X-TRA PCH MINT     051383002209RL0000050000200831001
B60924990402ZYN COFFEE               431483001680RL0000050000100649001
B60924990003ZYN COOL MINT            431474001680RL0000050000100649001
B60924990103ZYN PEPPERMINT           431476001680RL0000050000100649001
B60924990201ZYN SPEARMINT            431480001680RL0000050000100649001
B60924990202ZYN SPEARMINT            431481001680RL0000050000200649001
B60924990301ZYN WINTERGREEN          431477001680RL0000050000200649001
B60924990302ZYN WINTERGREEN          431479001680RL0000050000200649001
B04799585521AM SPIRIT BALANCE TASTE C360925007274CT0000100000100859001
B04799585508AM SPIRIT FULL BODIED BLU369439007274CT0000100000200859001
B04799585509AM SPIRIT MELLOW YELLOW B369520007274CT0000100000100859001
B04799585525AM SPIRIT ORGANIC MELLOW 369678007274CT0000100000100859001
B02820000723BENSON+HEDGES MENTHOL BOX112540008403CT0000100000100989001
B01230000007CAMEL BLUE BOX           117283006748CT0000100000200799001
B01230019741CAMEL CRUSH              757252006748CT0000100000100799001
B01230000093CAMEL CRUSH MENTHOL BOX  117333006748CT0000100000100799001
B01230000094CAMEL CRUSH MENTHOL SILVE117325006748CT0000100000100799001
B01230084417CAMEL TRK BLND SILVER BOX438058006748CT0000100000100799001
B01230070899CAMEL WIDE BLUE BOX      117440006748CT0000100000100799001
B09050000071KOOL BOX                 428294006748CT0000100000100799001
B02820000358MARLBORO                 367425006755CT0000100000100799001
B02820000264MARLBORO BLEND NO 27 BOX 369074006756CT0000100000100799001
B02820000363MARLBORO BOX             113118006756CT0000100000200799001
B02820000357MARLBORO BOX             116418006756CT0000100000500799001
B02820000384MARLBORO GOLD BOX        113415006756CT0000100000700799001
B02820000465MARLBORO GOLD BOX        113456006756CT0000100000200799001
B02820000401MARLBORO GOLD MENTHOL BOX369256006756CT0000100000100799001
B02820000471MARLBORO GOLD MENTHOL BOX369330006756CT0000100000100799001
B02820000949MARLBORO MENTHOL ICE BOX 453613006755CT0000100000100799001
B02820000477MARLBORO SILVER BOX      113472006756CT0000100000300799001
B02820000478MARLBORO SILVER BOX      369355006756CT0000100000100799001
B02820000323MARLBORO SMOOTH MENTHOL B274043006756CT0000100000100799001
B02820000422MARLBORO SPEC SELECT GOLD426569006756CT0000100000200799001
B02820000565MARLBORO SPEC SELECT RED 419853006756CT0000100000100799001
B02820000935MARLBORO 72 BLACK MENTHOL446338006755CT0000100000100799001
B02820000963MARLBORO 72 BOX          622340006756CT0000100000100799001
B02820000965MARLBORO 72 GOLD BOX     624064006756CT0000100000100799001
B02820000962MARLBORO 72 GREEN MENTHOL113241006755CT0000100000300799001
B02820000386MARLBORO 72 SILVER BOX   504050006756CT0000100000100799001
B02610000573NEWPORT MENTHOL BOX      234195007184CT0000100000200849001
B02610000575NEWPORT MENTHOL BOX      234203007184CT0000100000100849001
B02610000657NEWPORT NON MENT BOX     708271005944CT0000100000200839001
B02820000791PARLIAMENT WHITE BOX     115600007226CT0000100000100859001
B09050000096SALEM SILVER BOX         428336006898CT0000100000100819001
B02820000778VIRGINIA SLIM SS MENTHOL 090993007226CT0000100000100859001
B09050000059WINSTON GOLD BOX         428272006748CT0000100000100799001
B09050000061WINSTON GOLD BOX         428275006748CT0000100000100799001
B09050000057WINSTON RED BOX          428267006748CT0000100000100799001
B02820031022L&M BLUE BOX             420208006316CT0000100000200749001
B02820030992L&M BOX                  438221006316CT0000100000100749001
B09050000051MAVERICK MENTHOL BOX     428353005495CT0000100000100649001
B02040000035MISTY GREEN MENTHOL BOX  126615006571CT0000100000100779001
B02720000854PALL MALL BLUE BOX       385575006299CT0000100000100749001
B02720000185PALL MALL ORANGE BOX     386086006299CT0000100000100749001
B02720000867PALL MALL RED BOX        385542006299CT0000100000100749001
B01100000406PYRAMID BLUE BOX         894394005311CT0000100000100629001
B01100000408PYRAMID RED BOX          894329005311CT0000100000100629001
CSERDELIVERY CHARGE $5.00    000000500
CSERFUEL SURCHARGE $10.50  65000001050
ACMARK 2454613   0902190000005580
B01834175101VS NV BAREFOOT CABERNET  639906000504EA0000010000200649001
B01834175105VS NV BAREFOOT CHARDONNAY640805000508EA0000010000200649001
B08500001668VS NV BAREFOOT MOSCATO   640730000508EA0000010000300649001
B08500002587VS NV BAREFOOT ROSE      448349000508BT0000010000100649001
B08500001849VS NV BAREFOOT SWEET RED 639625000508BT0000010000200649001
B01834175106VS NV BAREFOOT WHITE ZIN 673665000508EA0000010000100649001
ACMARK 2454614   0902190000166419
B07490440001BANANAS CHIQUITA - RIPE  082016001231CS0000220000100069001
B07013711266BLK+MLD JAZZ WT 1@ .99   453325001727BX0000250000100129001
B07013782422BLK+MLD WINE PT 1@ .99   429705001899BX0000250000100142001
B04210001673GRIZZLY PREM PCH WNTGRN* 469471001316RL0000050000400403001
B76244644024LONGHORN LC MINT*PP$2.19 479396001418DL0000100000100285001
B76244640027LONGHORN LC WTG*PP$2.19 D479391001418DL0000100001600285001
B01230050974CAMEL 19 BLUE BOX*0.50/1P298067006248CT0000100000200739001
B01230050971CAMEL 19 BOX*0.50/1P     441547006248CT0000100000100739001
B02820017496MARL 18*SOUTHERN CUT $.50343657006255CT0000100000100799001
B02820017477MARL 19*BLACK SB $.50/1 P816793006255CT0000100000100799001
B02820017821MARL 19*BLND 27 BOX $.50/450781006255CT0000100000100799001
B02820017696MARL 19*EDGE $.50/1PK    915033006255CT0000100000300799001
B02820017479MARL 19*MEN BLACK SB $.50816868006255CT0000100000100799001
B02820017869MARL 19*MENT GLD BOX $.50446296006255CT0000100000100799001
B02820017867MARL 19*MENTHOL BOX $.50/446292006255CT0000100000100799001
B02820017825MARL 19*MENTHOL SLATE   $433217006255CT0000100000100799001
B02820017826MARL 19*MENTHOL SLATE   $433218006255CT0000100000100799001
B02820017492MARL 19*NXT BOX $.50/1PK 243782006255CT0000100000300799001
B02820017823MARL 19*RED LBL BOX $.50/446289006255CT0000100000100799001
B02820017489MARL 19*SB RED $.50/1 PK 872937006255CT0000100000100799001
B02610000667NEWPORT 18*BOX $0.50 OFF 242438006684CT0000100000200789001
ACMARK 2456044   090219-000007533
B07049617182D MIG BUR BOMB BF/BN/CHS 138545000224EA000001-000100359001
B07049674005D MIG BUR BOMB CHIPOTLE C431556000222EA000001-000100359001
B04369509734HOT PCKT PHILLY STEAK/CHS949271000180EA000001-000100309001
B07790051362J DEAN BRKFST BSCT BCN/EG634618000171EA000001-000700309001
B07790051374J DEAN BRKFST BSCT SAUS/E634634000171EA000001-000100319001
B07790051368J DEAN BRKFST MFFN HAM/EG634626000173EA000001-000400319001
B07142194315PIERRE BIG AZ CHSBRGR BCN418858000328EA000001-000500569001
B07142159864PIERRE BIG AZ CHSBRGR CW 418859000000EA000001-000100519001
B07142184231PIERRE BIG AZ CHSBRGR KCK418857000329EA000001-000300569001
B68290689077CA SLB SNDW TRI EGG SALAD370882000193EA000001-000100379001
B04143300952MARKET WDGE TURKEY/CHSE O233403000290EA000001-000100000000
B02500000021SIMPLY LEMONADE          188573000135EA000001-000100199001
B09518899591TAMPICO CITRUS           443958000053EA000001-000600000000
B09518897591TAMPICO MANGO            443959000057EA000001-000600000000
B09518895591TAMPICO TROPICAL         443957000057EA000001-000600000000
B07911712525AND 1% MILK 128Z         166835000368EA000001-000100000000
B07911704141AND 2% MILK              462410000097EA000001-000100000000
B88810901054HOST JUMBO MFN BLUEBERRY 454617000135EA000001-000100229001
