ACMARK 1530272   0602140001227379
B78950299050BULLSEYE CHERRY          833004007452CT0000100000100000000
B78950299051BULLSEYE GRAPE           832998007452CT0000100000100000000
B78950299052BULLSEYE PEACH           832980007452CT0000100000100000000
B78950299053BULLSEYE RASPBERRY       832972007452CT0000100000100000000
B78950299054BULLSEYE STRAWBERRY      832964007452CT0000100000100000000
B78950299055BULLSEYE VANILLA         832923007452CT0000100000100000000
B81025100056COLTS BLACK CHERRY       742437002425BX0000250000100000000
B81025100660COLTS BLACK CHERRY       742445007770CT0000100000100000000
B81025100680COLTS MENTHOL            893560007770CT0000100000100000000
B81025100180COLTS MENTHOL            893578002425BX0000250000100000000
B81025100240COLTS RUM + WINE         933440002425BX0000250000100000000
B81025100443COLTS RUM + WINE MILD SIN933457002425BX0000250000100000000
B81025100235COLTS RUM & WINE         579284007770CT0000100000100000001
B81025100437COLTS RUM & WINE MILD    579276007770CT0000100000100000001
B81025100639COLTS SWEETS             578955007770CT0000100000200000000
B81025100155COLTS SWEETS             634709002425BX0000250000100000000
B81025100039COLTS WHISKY             680157002425BX0000250000100000000
B81025100644COLTS WHISKY             680165007770CT0000100000100000000
B81025100775M BY COLTS CAFE LATTE    830471005806CT0000100000100000000
B81025100776M BY COLTS CAFE LATTE    873539001819BX0000250000100000000
B81025100770M BY COLTS CAFE MOKA     860411005806CT0000100000100000000
B81025100771M BY COLTS CAFE MOKA     873513001819BX0000250000100000000
B81025100780M BY COLTS CREAM         860429005806CT0000100000100000000
B81025100781M BY COLTS CREAM         873547001819BX0000250000100000000
B81025100751M BY COLTS MINT          893586001819BX0000250000100000000
B81025100750M BY COLTS MINT          893594005806CT0000100000100000000
B81025100765M BY COLTS WHITE         830463005806CT0000100000100000000
B81025100766M BY COLTS WHITE         873505001819BX0000250000100000000
B81025100190OLD PORT CIG O PLAIN     579268007599CT0000100000100000001
B81025100152OLD PORT CIG O PLAIN     634691003373BX0000250000100000000
B81025100194OLD PORT CIG O TIP       579250007599CT0000100000100000001
B81025100153OLD PORT CIG O TIP       634683003373BX0000250000100000000
B78950294001PRIME TIME SWT TIPPED CHE867218002838BX0000250000100000000
B78950294002PRIME TIME SWT TIPPED GRA867226002838BX0000250000100000000
B78950294003PRIME TIME SWT TIPPED PEA867234002838BX0000250000100000000
B78950294006PRIME TIME SWT TIPPED VAN867242002838BX0000250000100000000
B62814000907SKOAL LONG CUT BERRY     790345008189RL0000050000100000000
B62814000904SKOAL LONG CUT CHERRY    778365008189RL0000050000100000000
B62814000906SKOAL LONG CUT CITRUS    790360008189RL0000050000100000000
B62814000916SKOAL LONG CUT CRISP BLEN879486008189RL0000050000100000000
B62814000903SKOAL LONG CUT MINT      778373008189RL0000050000100000000
B62814000910SKOAL LONG CUT PEACH     826834008189RL0000050000100000000
B62814000915SKOAL LONG CUT RICH BLEND879478008189RL0000050000100000000
B62814000905SKOAL LONG CUT STRAIGHT  778407008189RL0000050000100000000
B06190000072B & H KING GOLD          933168008177CT0000080000100000000
B06190000028B & H KING MENTHOL       933184008177CT0000080000100000000
B06190000085B & H KING SILVER        933192008177CT0000080000100000000
B06190000014B & H SUPERSLIMS BLACK   933200008187CT0000100000100000000
B06190000012B & H SUPERSLIMS MENTHOL 933218008187CT0000100000100000000
B06190000017B & H SUPERSLIMS SAPPHIRE933226008187CT0000100000100000000
B06190000015B & H SUPERSLIMS WHITE   933234008187CT0000100000100000000
B06190000073B & H 100 DELUXE         933242008187CT0000100000100000000
B06190000075B & H 100 DELUXE MENTHOL 933259008187CT0000100000100000000
B06190000040B & H 100 DELUXE SAPPHIRE933267008187CT0000100000100000000
B06190000025B & H 100 MENTHOL        933176008187CT0000100000100000000
B06190000013BELMONT KING BLUE        894287007953CT0000100000100000000
B06190010113BELMONT KING BLUE        942284007953CT0000080000100000000
B06190000007BELMONT KING EDGE MICRO B808683007271CT0000100000100000000
B06190000008BELMONT KING EDGE MICRO S808691007271CT0000100000100000000
B06190013812BELMONT KING SILVER      746289007953CT0000100000100000000
B06190013813BELMONT KING SILVER      746297007953CT0000080000100000000
B06190010287BELMONT KING TOUCH       874131007271CT0000100000100000000
B06190010114BELMONT REGULAR BLUE     573774007953CT0000100000100000000
B06190010115BELMONT REGULAR BLUE     942292007953CT0000080000100000000
B06190013815BELMONT REGULAR SILVER   746305007953CT0000080000100000000
B06190013814BELMONT REGULAR SILVER   746313007953CT0000100000100000000
B06010000169EXPORT A KING EXTRA SMOOT882738007538CT0000080000100000000
B06010000028EXPORT A KING SMOOTH     882712007438CT0000080000100000000
B06010000944EXPORT A KING ULTRA SMOOT882753007538CT0000080000100000000
B06010000007EXPORT A REGULAR         882613007378CT0000100000100000000
B06010000010EXPORT A REGULAR         882621007538CT0000080000100000000
B06010000163EXPORT A REGULAR EXTRA SM882720007538CT0000080000100000000
B06010000034EXPORT A REGULAR MEDIUM  882647007538CT0000080000100000000
B06010000019EXPORT A REGULAR SMOOTH  882688007378CT0000100000100000000
B06010000022EXPORT A REGULAR SMOOTH  882704007438CT0000080000400000000
B06010000938EXPORT A REGULAR ULTRA SM882746007538CT0000080000200000000
B06010000064MACDONALD REGULAR MENTHOL932509008115CT0000080000100000000
B06010000536MORE 120 FILTER WHITE    942508008327CT0000100000100000000
B06010000539MORE 120 MENTHOL WHITE   942516008327CT0000100000100000000
B06190000051ROOFTOP KING GOLD        942185008313CT0000100000100000000
B06190000023ROOFTOP KING RED         942193008313CT0000100000100000000
B06190000056ROOFTOP KING SILVER      942201008313CT0000100000100000000
B06190011060ROTHMANS KING            942250008305CT0000080000100000000
B06190011150ROTHMANS KING SPECIAL    942276008305CT0000080000100000000
B06190013026ACCORD BLUE KING SELECT  763508006717CT0000080000100000000
B06190013028ACCORD BLUE REGULAR SELEC763516006717CT0000080000100000000
B06190013034ACCORD KING MENTHOL      775668006717CT0000080000100000000
B06190013022ACCORD RED KING          763466006717CT0000080000100000000
B06190013024ACCORD RED REGULAR       763482006717CT0000080000100000000
B06190012625CANADIAN CLASSICS KING   360891006672CT0000080000300000000
B06190012630CANADIAN CLASSICS KING   695924006672CT0000100000100000000
B06190012632CANADIAN CLASSICS KING CO908475006672CT0000100000100000000
B06190012633CANADIAN CLASSICS KING CO908483006672CT0000080000100000000
B06190012825CANADIAN CLASSICS KING SI496877006672CT0000080000300000000
B06190012830CANADIAN CLASSICS KING SI763854006672CT0000100000100000000
B06190012925CANADIAN CLASSICS KING WH678979006672CT0000080000200000000
B06190012930CANADIAN CLASSICS KING WH790758006672CT0000100000100000000
B06190012635CANADIAN CLASSICS REG    360909006672CT0000080000400000000
B06190012640CANADIAN CLASSICS REG    695916006672CT0000100000100000000
B06190012643CANADIAN CLASSICS REG COD908491006672CT0000080000100000000
B06190012642CANADIAN CLASSICS REG COD908509006672CT0000100000100000000
B06190012835CANADIAN CLASSICS REG SIL496885006672CT0000080000400000000
B06190012840CANADIAN CLASSICS REG SIL763862006672CT0000100000100000000
B06190012935CANADIAN CLASSICS REG WHI678961006672CT0000080000200000000
B06190012940CANADIAN CLASSICS REG WHI791723006672CT0000100000100000000
B06010003794LD MENTHOL               939306005333CT0000080000100000000
B06010003773LD RED FULL FLAVOR       923508005333CT0000080000100000000
B06010003767LD RED FULL FLAVOR       923532005333CT0000100000100000000
B06010003764LD RED FULL FLAVOR       923557005333CT0000080000100000000
B06010003803LD SILVER                939272005333CT0000080000100000000
B06010003454LEGEND KING FULL FLAVOR  634170005915CT0000080000100000000
B06010003489LEGEND KING FULL FLAVOR  645630005915CT0000100000100000000
B06010003451LEGEND REG FULL FLAVOR   634162005915CT0000080000100000000
B06010003457LEGEND SMOOTH KING       634188005915CT0000080000100000000
B06010003478LEGEND SMOOTH REG        637660005915CT0000080000100000000
B06010003686MACDONALD SPECIAL CHARCOA902114005505CT0000080000100000000
B06010003545MACDONALD SPECIAL EX SMOO736140005969CT0000100000100000000
B06010003539MACDONALD SPECIAL EX SMOO736157005969CT0000100000100000000
B06010003548MACDONALD SPECIAL EX SMOO736165005969CT0000080000100000000
B06010003542MACDONALD SPECIAL EX SMOO736173005969CT0000080000100000000
B06010003521MACDONALD SPECIAL FULL FL695122005969CT0000080000100000000
B06010003515MACDONALD SPECIAL FULL FL695130005969CT0000100000100000000
B06010003518MACDONALD SPECIAL FULL FL695155005969CT0000080000100000000
B06010003536MACDONALD SPECIAL FULL FL713347005969CT0000100000100000000
B06010003647MACDONALD SPECIAL MENTHOL865931005505CT0000100000100000000
B06010003650MACDONALD SPECIAL MENTHOL865949005505CT0000080000100000000
B06010003533MACDONALD SPECIAL SMOOTH 695114005969CT0000080000300000000
B06010003527MACDONALD SPECIAL SMOOTH 695148005969CT0000080000200000000
B06010003524MACDONALD SPECIAL SMOOTH 695189005969CT0000100000100000000
B06010003530MACDONALD SPECIAL SMOOTH 769158005969CT0000100000100000000
B06190012280NUMBER 7 KING BLUE       313627006970CT0000080000100000000
B06190012267NUMBER 7 KING MENTHOL GRE905018006970CT0000080000100000000
B06190012260NUMBER 7 KING RED        313619006970CT0000080000100000000
B06190012240NUMBER 7 RED REGULAR     312777006970CT0000080000100000000
B06190012220NUMBER 7 REGULAR BLUE    312785006970CT0000080000100000000
B06190010720PHILIP MORRIS RED        927780005283CT0000100000100000000
B06190010722PHILIP MORRIS RED        927798005283CT0000080000100000000
B06190010724PHILIP MORRIS RED        927806005283CT0000100000100000000
B06010003439STUDIO KING              634105005575CT0000080000100000000
B06010003483STUDIO KING              806422005575CT0000100000100000000
B06010003445STUDIO KING SMOOTH       634139005575CT0000080000100000000
B06010003668STUDIO KING SMOOTH       908061005575CT0000100000100000000
B06010003436STUDIO REGULAR RED       908046005575CT0000080000100000000
B06010003442STUDIO REGULAR SMOOTH    908053005575CT0000080000100000000
B06010000046VANTAGE KING FILTER 9    882787007419CT0000080000100000000
B06010003358VANTAGE KING MEDIUM 7    882795007419CT0000080000100000000
B06010000052VANTAGE KING SPECIAL 5   882811007419CT0000080000100000000
CSERGST TAX                  000141203
