ACMARK 0034983   0103200001065456
B05450031805BALL PARK ANGUS BF FRNK 6900480003914CS0000500000100149001
B00815734386GREEN BOYS CRINKLE DILL C440467000602EA0000010000100000001
B04450032102HILLSHIRE CHEDDARWURST 5T620807004884CS0000600000100149001
B04450021546HILLSHIRE PEPP/JACK SMK S444430004059CS0000500000100149001
B08540410935HOT DOG ROLLER GRILL BRUS588889001396EA0000010000100000000
B07606400104NE-MO SQUARES CHOC       047837000586BX0000060000100085001
B08298805002WHT CASTLE BRKFST SAUS/EG048769001977CS0000160000100239001
B07142194315PIERRE BIG AZ CHSBRGR BCN418858000307EA0000010001000569001
B68290689064CA F&R SNDW SLB TRK/BC/CL855346000356EA0000010000000459001
B86257600025COCO TAPS FRESH COCONUT W464751004534CS0000090000000799001
B71752430995DEL MONTE YELLOW ONIONS D707596000235BG0000010000100000000
B72243050016GTS SYNERGY ENLIGHTEN MST452085001446CS0000060000100000000
B72243011016GTS SYNERGY ENLIGHTEN TRI452086001415CS0000060000100399001
B04850001775TROP PURE PREM ORIG ORANG394247001637CS0000120000100239001
B04850001777TROP PURE PREM W/PULP ORA394262001637CS0000120000100239001
B02620046372D+S PUMPKIN SDS          413633001417CS0000120000100219001
B01708260013LINK STEAK SWEET & SPICY 814848002466BX0000120000100365001
B04400003283NAB OREO DBL STUFF GLDN K442827001097BX0000100000100189001
B03000000277QUAKER BRKFST SQR STRBRRY453283000484BX0000060000100149001
B04950800731S/F PRTZL CRISPS BUFFALO 455507000744CS0000080000100169001
B02620014050SLIM JIM MONSTER STCK TAB276659002831BX0000180000100299001
B02620017175SLIM JIM STICK TURKEY ORI437559002002BX0000240000100149001
B02620010192SLIM JIM 3/$1 CNTR UNIT D422422002597BX0001200000100100004
B08707621640SNK CLB TAJIN PNUTS CLASS461775001180CS0000060000000369001
B01411391029WONDERFUL PISTACHIOS SALT322602002280BX0000080000100569001
B04141942005COMBOS PRTZL CHED CHSE   368464000169EA0000010000300289001
B02620046172D+S BAG SNFLWR SDS ORIG  210443000117EA0000010000300199001
B02620023893D+S SNFLWR SDS JUMBO BUFF750992000117EA0000010000300199001
B02620046772D+S SNFLWR SDS RANCH     210377000117EA0000010000300199001
B79042923126I F CHOC NUT TRAIL MIX   337212000200EA0000010000300199001
B79042922546I F MANGO CHILE          547232000200EA0000010000300299001
B79042925950I F PINEAPPLE PIECES     449323000200EA0000010000300369001
B79042921387I F TROPICAL MIX         547083000200EA0000010000300299001
B79042923133I F WASABI PEAS          337105000200EA0000010000300199001
B01708287747LINK JRKY PEPPERED       417702000274EA0000010000300445001
B01708288392LINK JRKY PEPPERED       443656000523EA0000010000300819001
B02900001263PLT B/B CHIPOTLE PNUTS   451625000137EA0000010000300239001
B03800084894PRINGLES GRAB&GO LG SLT &801936000094EA0000010000300179001
B01411373406WONDERFUL PISTACHIOS RST/426582000654EA0000010000301219001
B02200002786ALERT CAFFEINE GUM FRUIT 447674001271BX0000080000100055001
B85947000625CHAVITO JABALINA         448509001317BX0000120000100219001
B85947000654CHAVITO PINA ENCHILADA   456203001317BX0000120000100219001
B02200000898EXTRA POLAR ICE SLIM PK  761379000805BX0000100000100099001
B85798300403HI CHEW BANANA           422268000669BX0000100000100069001
B87398300003HI CHEW GREEN APPLE      087064000680BX0000100000100069001
B03400000843ICE BREAKER I-CUBE BTTL P438478001119BX0000040000100055001
B03400000665ICE BREAKER MINTS DUO STR767533001220BX0000080000100055001
B07097047126MIKE & IKE TROP TYPHOON  498600001067CS0000120000100169001
B02200000484ORBIT GUM SPEARMINT      304428001042BX0000120000100099001
B03400000480REESES PB CUP KING SZ    117754002917BX0000240000100099001
B00980012301ROCHER 3 PK              068627001343BX0000120000100099001
B03590029987SANDERS CHOC HNY ALM CARM464235002793DL0000120000100459001
B04142001344SATHERS 2/$2.00 GUMLO MEL439446000725CS0000120000100200002
B02200007929STARBURST GUMMIES SHARE S427645001781BX0000150000100099001
B03400000135TAKE 5 KING SZ           926444002188BX0000180000100099001
B07172000007TOOTSIE POPS ASSTD       016188001096BX0001000000100039001
B01254667609TRIDENT WHT SPLIT2FIT PEP841023000750BX0000090000100099001
B02200000172WRIGLEY DOUBLEMINT TWIN B443705000778BX0000400000100030001
B02200000178WRIGLEY WINTERFRESH TWIN 443739000778BX0000400000100030001
B04223830221HARIBO GOLDBEARS         083899000096EA0000010000300189001
B07046209861SOUR PATCH KD ASST       456293000110EA0000010000300199001
B07046209863SOUR PATCH KD WTRMLN     477174000110EA0000010000300199001
B07046243351SOUR PATCH XPLODERZ      423681000163EA0000010000300289001
B04142011587TROLLI GUMMI SR BR CRWLR 419923000124EA0000010000300229001
B07994440943EMERALD BATHROOM TISSUE  624627000205EA0000010000300129001
B01300000124HEINZ KETCHUP            873349000205EA0000010000300209001
B02100065893KRAFT VELVEETA + SHELLS  278390000424EA0000010000300389001
B07066201003TOP RAMEN CHICKEN        633891000025EA0000010000300049001
B07911704242AND CHOC 2% MILK         462409000095EA0000010000400000000
B07911712121AND CHOC 2% MILK 32Z     166751000142EA0000010000100000000
B02544430003AND HICKMAN EGGS LRG GRD 419137000232EA0000010000000000000
B07911701319AND I/C BUTTER PECAN     405993000150EA0000010000200199001
B07911701313AND I/C CHOC             299594000150EA0000010000100199001
B07911701317AND I/C ROCKY ROAD       299792000150EA0000010000100199001
B07911701312AND I/C VANILLA          299438000150EA0000010000100199001
B07911710101AND MILK WHOLE 128Z      166538000340EA0000010000600000000
B07911710303AND WHOLE MILK 32Z       166611000142EA0000010000100000000
B07911704040AND WHOLE MLK 12Z        462411000094EA0000010000400000000
B07911712525AND 1% MILK 128Z         166835000341EA0000010000300000000
B07911704141AND 2% MILK              462410000094EA0000010000100000000
B07911711120AND 2% MILK 128Z         166546000339EA0000010000700000000
B07911711313AND 2% MILK 32Z          166710000142EA0000010000100000000
B07064031060B B I/C BIG SNDWCH VAN   045237002217CS0000240000100109001
B07064001442B B I/C COOL TUBE JOLLY R429107001998CS0000240000100119001
B04450020181HILLSHIRE SM PLATE GEN SA431526003072CS0000120000100449001
B04450020182HILLSHIRE SM PLATE ITL SA433720003072CS0000120000100449001
B04470000673OM LNCHBL CRCKR STCKR TRK459275000246EA0000010000400000001
B04470000677OM LNCHBL FN PK HAM/AMRCN458458000246EA0000010000200000001
B04470036000OM LNCHBL HAM/CHEDDAR VAN229864000197EA0000010000200349001
B04470036001OM LNCHBL TURKEY/AMER    934844000197EA0000010000100349001
B04610001905SARGENTO BAL BRK SHP CHD/427606000303BX0000030000100139001
B04190007536TRUMOO CHOC WHLE ESL     491704000106EA0000010000100199001
B04190007532TRUMOO PROTEIN SHAKE ESL 625004000118EA0000010000100349001
B04190007533TRUMOO PROTEIN SHAKE ESL 625012000118EA0000010000200349001
B04190007538TRUMOO STRAWBERRY 1%     718635000106EA0000010000300199001
B07684010207BEN&JERRY I/C AMERICONE D902973000547EA0000010000300699001
B07684010058BEN&JERRY I/C C CHIP CKIE008490000459EA0000010000300409001
B03820000090VAN HOLTEN PICKLE BIG PAP795492000102EA0000010000300189001
B88810901016HOST CINNAMON ROLL       620567000817BX0000060000100229001
B88810901007HOST CUPCAKE ORANGE      619999000817BX0000060000100229001
B88810905005HOST DONETTES CRUNCH     620393001360BX0000100000100229001
B88810911064HOST DONETTES CRUNCH     446208000253BG0000010000100399001
B88810905003HOST DONETTES DBL CHOCOLA430201001360BX0000100000100229001
B88810901009HOST SNOBALLS            620062000817BX0000060000100229001
B88810901090HOST TWINKIES CHOCOLATE  438797000817BX0000060000100229001
B07829658922HOT DOG BUNS IND WRPD    427872001353CS0000560000100000000
B07061240320ARMOR ALL TIRE FOAM      458808000336EA0000010000100559001
B07033060006BIC LTR CHILD GUARD      631317004888DL0000500000100169001
B07033090282BIC PEN CLASSIC STIC BLUE075804000066EA0000010000100119001
B09418704037C/VALET SUPER GLUE       930123000575BX0000060000100169001
B04133321401DURACELL BATT C        MN321042000527EA0000010000300879001
B08069295014GLV LEATHER PALM KNIT WRS256040000285EA0000010000100479001
B81991301138JUUL E-LIQ POD CRM BRLEE 219097009227BX0000080000001929001
B81991301247JUUL E-LIQ POD CUCUMBER 4453871009227BX0000080000001929001
B81991301139JUUL E-LIQ POD FRUIT 4PK 219139009227BX0000080000001929001
B81991301516JUUL E-LIQ POD MANGO 2PK 463111005955BX0000080000001249001
B81991301244JUUL E-LIQ POD MANGO 4PK 451101009227BX0000080000001929001
B81991301140JUUL E-LIQ POD MINT 4PK  219071009227BX0000080000201929001
B08089301050LIL A DUCT TAPE          042994000168EA0000010000100279001
B89433700698LOWRIDER S/GLASS       #0426241001020EA0000010000101709001
B89433700702LOWRIDER S/GLASS       #0426245001020EA0000010000101709001
B09710000177MARKTEN E-CIG CART CLASS 428065003681BX0000060000001029001
B09710000149MARKTEN E-CIG CART MENTH 428067003681BX0000060000001029001
B09710000150MARKTEN E-CIG CART WNTR M428984003681BX0000060000001029001
B09710000178MARKTEN E-CIG CLASSIC    428069002730BX0000050000000919001
B09710000148MARKTEN E-CIG MENTHOL    428072002730BX0000050000000919001
B05576500135SCNT BOMB AIR FRSH BLK BM438170000159EA0000010000400000001
B05576500140SCNT BOMB AIR FRSH CLN CT438169000159EA0000010000400000001
B05576500139SCNT BOMB AIR FRSH BL CHR438167000159EA0000010000400000001
B05576500146SCNT BOMB AIR FRSH HWN BL438171000159EA0000010000400000001
B05576500152SCNT BOMB AIR FRSH MNG TR438172000161EA0000010000400000001
B07115365148STP OIL TREATMENT        831024000301EA0000010000100279001
B07115378575STP SUPER FUEL INJ CLEANE937920000325EA0000010000200549001
B08069204001STRIKE N LITE LTR CLEAR A022905001000BX0000500000100039001
B84920501512VUSE CIRO E-CIG CART ORIG449538004960BX0000050000101659001
B84920500269VUSE E-CIG CART BERRY 5MG422228003162BX0000050000301059001
B30573070551CHAPSTICK REFILL PK CHERR462071001512DL0000120000100219001
B85347100489FORTO COFF COLD BREW MOCH439418000975BX0000060000100279001
B85347100404FORTO COFF SHOT BLACK    452776000975BX0000060000000279001
B36671597522LIL D ADVIL LIQUID GEL TR453535000788BX0000060000100219001
B36671597472LIL D TAKE 2 TYLENOL ES C734293000795DL0000060000100229001
B36671597362LIL D ZANTAC 150MG 2CT   310136001093BX0000060000100309001
B79255470220LIL N FIRST AID KIT      610808000098EA0000010000200169001
B79255470115LIL N TOOTHPASTE/TOOTHBRU095398000165EA0000010000200279001
B02260064603TROJAN CONDOM MAGNUM THIN550079000211EA0000010000200359001
B719410720015HR ENRG C/U GRAPE XSTR  339895002436DL0000120000100339001
B719410750015HR ENRG C/U PEACH MANGO 357855002259DL0000120000100319001
B719410140115HR ENRG C/U PINK LEMONAD558197002205DL0000120000100309001
B719410800015HR ENRG C/U POM         219063002205DL0000120000100309001
B719410740015HR ENRG C/U STRWBRY/WTRM828475002436DL0000120000100339001
B07161030203BACKWOODS HONEY BERRY SIN374876002760BX0000240000000207001
B07161030198BACKWOODS SWEET AROMATIC 099770002760BX0000240000000207001
B07013711137BLK+MLD JAZZ PT 1@ .89   390369001859BX0000250000200142001
B07013711424BLK+MLD SWEETS WT 1@ .99 441740001727BX0000250000100142001
B07013710523BLK+MLD WINE             288225002482BX0000250000100181001
B07161049648D MASTER DUTCH CIGRLO BER833814002718BX0000300000100168001
B07161049612D MASTER DUTCH CIGRLO HNY418329002718BX0000300000100168001
B07161049508D MASTER DUTCH CIGRLO IRS439172002718BX0000300000100168001
B02590022726SWISHER SWT CIGRLO       397422002603BX0000300000200168001
B02590022727SWISHER SWT CIGRLO GRAPE 397448002603BX0000300000100168001
B02590020536SWISHER UNSWT CIGRLO DMND870352002512BX0000300000100168001
B03170004913W OWL CIGRLO FOIL PINAPLE352617002284DL0000300000000129002
B78476207132ZIG ZAG CIGRLO STRAIGHT U017939001104BX0000150000100142001
B01230000040CAMEL SNUS FROST      LRG696823002168RL0000050000200805001
B07310000107COPENHAGEN FC NATURAL    074096002553RL0000050000200489001
B07310000036COPENHAGEN LC MINT       139675001957RL0000050000500740001
B07310000121COPENHAGEN LC NATURAL    127654002553RL0000050000000489001
B07310000882COPENHAGEN LC STRAIGHT   307553002061RL0000050000300766001
B07310000876COPENHAGEN LC WINTERGREEN132084001988RL0000050000300740001
B07310000314COPENHAGEN POUCH         371575002553RL0000050000100489001
B07310000039COPENHAGEN POUCH MINT    427718001988RL0000050000200740001
B04210000871GRIZZLY LC WNTRGRN       316604002079RL0000050000300740001
B04210001125GRIZZLY POUCH DRK WNTRGRN092411001954RL0000050000100740001
B04210000543GRIZZLY POUCH WINTERGREEN430157002079RL0000050000300740001
B04210000294KODIAK WINTERGREEN       184267002631RL0000050000300489001
B07310000090SKOAL BANDIT MINT        465047002553RL0000050000200489001
B07310000480SKOAL LC APPLE           779884001988RL0000050000100740001
B07310000313SKOAL LC BERRY           320903001988RL0000050000100740001
B07310000485SKOAL LC CITRUS BLEND    276006001988RL0000050000200740001
B07310000088SKOAL LC MINT            074153002553RL0000050000100489001
B07310000589SKOAL LC PEACH           909598001988RL0000050000200740001
B07310000148SKOAL LC WINTERGREEN     074112002553RL0000050000200489001
B07310000591SKOAL PCH APPLE          008136001901RL0000050000100740001
B07310000344SKOAL PCH BERRY          591768001988RL0000050000200740001
B07310000457SKOAL PCH MINT           816272002553RL0000050000000489001
B07310000319SKOAL PCH WINTERGREEN    371567002553RL0000050000100489001
B07310000272SKOAL X-TRA LC MINT      051193002029RL0000050000100766001
B07310000168SKOAL X-TRA PCH MINT     051383002029RL0000050000200766001
B07310000167SKOAL X-TRA PCH WINTERGRE051375002029RL0000050000100766001
B60924990601ZYN CINNAMON             431484001664RL0000050000000649001
B60924990401ZYN COFFEE               431482001664RL0000050000000649001
B60924990003ZYN COOL MINT            431474001664RL0000050000100649001
B60924990103ZYN PEPPERMINT           431476001664RL0000050000000649001
B60924990202ZYN SPEARMINT            431481001664RL0000050000000649001
B60924990301ZYN WINTERGREEN          431477001664RL0000050000200649001
B60924990302ZYN WINTERGREEN          431479001664RL0000050000100649001
B04799585508AM SPIRIT FULL BODIED BLU369439007093CT0000100000100839001
B04799585505AM SPIRIT MELLOW TASTE GR369611007093CT0000100000200839001
B04799585509AM SPIRIT MELLOW YELLOW B369520007093CT0000100000200839001
B04799585525AM SPIRIT ORGANIC MELLOW 369678007093CT0000100000100839001
B04799585524AM SPIRIT ORGANIC TURQSE 369660007093CT0000100000100839001
B04799585507AM SPIRIT PERIQUE ROBUST 369645007093CT0000100000100839001
B01230000007CAMEL BLUE BOX           117283006570CT0000100000200779001
B01230019741CAMEL CRUSH              757252006570CT0000100000400779001
B01230000093CAMEL CRUSH MENTHOL BOX  117333006570CT0000100000200779001
B01230000094CAMEL CRUSH MENTHOL SILVE117325006570CT0000100000400779001
B01230084435CAMEL TRK BLND JADE SILVE438062006570CT0000100000100779001
B01230084391CAMEL TRK BLND ROYAL BOX 438049006570CT0000100000100779001
B01230084417CAMEL TRK BLND SILVER BOX438058006570CT0000100000100779001
B01230030288CAMEL TURKISH ROYAL BOX  117408006570CT0000100000100779001
B01230020060CAMEL 99 BLUE BOX        065805006570CT0000100000100779001
B02720000217CAPRI INDIGO MENTHOL BOX 121525008355CT0000100000100989001
B02820000358MARLBORO                 367425006577CT0000100000100779001
B02820000953MARLBORO BLACK SPEC BLND 438213006578CT0000100000100779001
B02820000948MARLBORO BLEND NO 27 BOX 703330006578CT0000100000100779001
B02820000376MARLBORO BLUE MENTHOL BOX113258006578CT0000100000100779001
B02820000363MARLBORO BOX             113118006578CT0000100000400779001
B02820000357MARLBORO BOX             116418006578CT0000100000600779001
B02820031992MARLBORO EDGE BOX        870378006578CT0000100000100779001
B02820000384MARLBORO GOLD BOX        113415006578CT0000100001300779001
B02820000465MARLBORO GOLD BOX        113456006578CT0000100000500779001
B02820000471MARLBORO GOLD MENTHOL BOX369330006578CT0000100000100779001
B02820000361MARLBORO MENTHOL BOX     369090006578CT0000100000200779001
B02820000949MARLBORO MENTHOL ICE BOX 453613006577CT0000100000100779001
B02820031772MARLBORO NXT BOX         226639006578CT0000100000200779001
B02820000368MARLBORO RED LABEL BOX   369165006578CT0000100000100779001
B02820000477MARLBORO SILVER BOX      113472006578CT0000100000200779001
B02820000478MARLBORO SILVER BOX      369355006578CT0000100000100779001
B02820000323MARLBORO SMOOTH MENTHOL B274043006578CT0000100000200779001
B02820000423MARLBORO SPEC SELECT GOLD404632006578CT0000100000300779001
B02820000422MARLBORO SPEC SELECT GOLD426569006578CT0000100000200779001
B02820000963MARLBORO 72 BOX          622340006578CT0000100000100779001
B02820000965MARLBORO 72 GOLD BOX     624064006578CT0000100000100779001
B02820000962MARLBORO 72 GREEN MENTHOL113241006577CT0000100000200779001
B02820000386MARLBORO 72 SILVER BOX   504050006578CT0000100000100779001
B02610000573NEWPORT MENTHOL BOX      234195007006CT0000100000400829001
B02610000575NEWPORT MENTHOL BOX      234203007006CT0000100000500829001
B02610000656NEWPORT NON MENT BOX     708263005666CT0000100000100829001
B02610000657NEWPORT NON MENT BOX     708271005666CT0000100000100829001
B02610000660NEWPORT NON MENT GOLD BOX692723005666CT0000100000100829001
B02820000791PARLIAMENT WHITE BOX     115600006998CT0000100000100829001
B09050000096SALEM SILVER BOX         428336006670CT0000100000200789001
B09050000059WINSTON GOLD BOX         428272006570CT0000100000100779001
B09050000061WINSTON GOLD BOX         428275006570CT0000100000100779001
B09050000057WINSTON RED BOX          428267006570CT0000100000100779001
B02820031022L&M BLUE BOX             420208006199CT0000100000100729001
B02820030982L&M BOX                  438217006199CT0000100000100729001
B02820030992L&M BOX                  438221006199CT0000100000200729001
B02820031032L&M MENTHOL BOX          420224006199CT0000100000100729001
B02820031042L&M MENTHOL BOX          420257006199CT0000100000100729001
B02820031392L&M TURKISH BLEND BOX    709451006199CT0000100000100729001
B02720000854PALL MALL BLUE BOX       385575006177CT0000100000100729001
B02720000862PALL MALL BLUE BOX       385641006177CT0000100000100729001
B02720000185PALL MALL ORANGE BOX     386086006177CT0000100000200729001
B02720000867PALL MALL RED BOX        385542006177CT0000100000100729001
B01100000413PYRAMID ORANGE BOX       894436005129CT0000100000100609001
B01100000408PYRAMID RED BOX          894329005129CT0000100000200609001
CSERDELIVERY CHARGE $5.00    000000500
CSERFUEL SURCHARGE $10.50  65000001050
ACMARK 0034770   0103200000004741
B08500001774VS NV APOTHIC RED        639492000903BT0000010000301099001
B01834175110VS NV BAREFOOT MERLOT    640722000508EA0000010000300649001
B08500002045VS NV BAREFOOT PINK MOSCA357939000508BT0000010000100649001
ACMARK 0034771   0103200000001471
B07490440001BANANAS CHIQUITA - RIPE  082016001471CS0000220000100069001
B02200000483ORBIT GUM SWEET MINT     911636000079EA0000010000000000001
B02200000484ORBIT GUM SPEARMINT      304428000079EA0000010000000000001
B02200000488ORBIT GUM WINTERMINT     276238000079EA0000010000000000001
B02200000486ORBIT GUM PEPPERMINT     276246000079EA0000010000000000001
B02200002185ORBIT GUM FREEZE SLIM 14S461805000077EA0000010000000000001
ACMARK 0035200   0103200000007200
B79936665853POS ACTIV BILL AMAZON KIN570218002425EA0000010000202500001
B79936671047POS ACTIVE BASS PRO      684332002350EA0000010000102500001
ACMARK 0035390   010320-000003176
B68290689051CA D/D SNDW SLB TRI TURKY855262000261EA000001-000100319001
B68290689908FR BISTRO BOX BREAKFAST  456983000300EA000001-000200529001
B68290689910FR BISTRO BOX CLASSIC    456985000300EA000001-000400529001
B68290689912FR BISTRO BOX SNACK      456988000283EA000001-000100529001
B68290689909FR BISTRO BOX TOMATO MOZZ456984000300EA000001-000200529001
B02544430003AND HICKMAN EGGS LRG GRD 419137000232EA000001-000100000000
ACMARK 0035391   010320-000003396
B07790051362J DEAN BRKFST BSCT BCN/EG634618000171EA000001-000100309001
B07790051368J DEAN BRKFST MFFN HAM/EG634626000172EA000001-000100309001
B07320241501POSADA CHIMICHANGA CHIX  097253000111EA000001-000200209001
B08298804007WHT CASTLE CHIX SANDWICH 215483000152EA000001-000100269001
B08298800002WHT CASTLE H/BURGER      508564000103EA000001-000200189001
B08298801102WHT CASTLE H/BURGER JAL C904946000114EA000001-000100000000
B68290689053CA D/D SNDW SLB TRI TUNA 855296000261EA000001-000100319001
B68290689291CA SLB SNDW TRI CLUB WHEA239095000193EA000001-000400379001
B04143302423MARKET ART M/GRN TRKY/CHE799023000332EA000001-000100599001
B04470002455OM LNCHBL TURKEY/CHEDD CR735365000197EA000001-000100349001
B88810911065HOST DONETTES GLAZED     446209000253EA000001-000100399001
B88810901090HOST TWINKIES CHOCOLATE  438797000136EA000001-000400229001
ACMARK 0035466   010320-000000959
B01254601172TRIDENT BLACK RASP TWIST 444931000959BX000012-000100055001
ACMARK 0035467   010320-000001990
B08259298815NAKED JCE BERRY BLAST    709337001990CS000008-000100399001
ACMARK 0035468   010320-000001432
B01600050582CHEX MIX CHED JALA       074385000120EA000001-000100229001
B01600012609CHEX MIX HOT & SPICY     074369000083EA000001-000100229001
B02620046072D+S SNFLWR KRNLS         413708000095EA000001-000100169001
B02620046772D+S SNFLWR SDS RANCH     210377000107EA000001-000200199001
B03800035821NUTRI-GRAIN BAR RASPBERRY439174000052EA000001-000300069001
B02900007541PLT TUBE NUT ALMOND      782250000105EA000001-000100199001
B85025100408SKINNYPOP SKINNYSNACK ORI248831000092EA000001-000100189001
B07890750019SNAK KING P/CORN CHEESE  092833000081EA000001-000700169001
ACMARK 0035469   010320-000000218
B85290900353CALIFIA CLD BREW COFF XXE420055000218EA000001-000100000000
ACMARK 0035470   010319-000000196
B79255470220LIL N FIRST AID KIT      610808000098EA000001-000200169001
ACMARK 0035471   0103190000000985
B71628150785FIX A FLAT W/HOSE        434213000735EA0000010000101229001
B79255470070LIL N SCOPE MOUTHWASH  PE445076000125EA0000010000200209001
